:1000000012C02AC029C028C027C026C052C024C0A0
:1000100023C022C021C020C01FC01EC01DC01CC0E4
:100020001BC01AC019C011241FBECFEDCDBF10E0F8
:10003000A0E6B0E0E6EBF1E002C005900D92AE372D
:10004000B107D9F720E0AEE7B0E001C01D92A238B9
:10005000B207E1F772D0ADC0D3CF80917E0090910E
:100060007F0063E070E080D0FC01E05AFF4F908198
:100070002181828196BF30E03BBD2ABD90E099BDD1
:1000800088BD80917E0090917F0001966AE070E0CB
:100090007CD090937F0080937E00089580B78F7707
:1000A00080BF8FB58F778FBD8FB58F7D8FBD18BA0D
:1000B00008951F920F920FB60F9211242F933F9322
:1000C0004F935F936F937F938F939F93AF93BF9360
:1000D000EF93FF9346B38091800090918100880F49
:1000E000991F242F217030E0822B932B906E9093D8
:1000F0008100809380008115904F09F4AEDF8599CF
:100100001AC080B7806880BF8FB580688FBD8FB5FB
:1001100080628FBDFF91EF91BF91AF919F918F91C1
:100120007F916F915F914F913F912F910F900FBEF3
:100130000F901F901895B2DFEDCF8CE187BB83E065
:1001400080BF81E083BF99E09FBD8EBD82E088BF04
:1001500089BF83DFA3DF789485B7806285BF8895E8
:1001600085B78F7D85BFF8CF0024552704C0080EC2
:10017000591F880F991F009729F076956795B8F356
:100180007105B9F7802D952F0895AA1BBB1B51E16E
:1001900007C0AA1FBB1FA617B70710F0A61BB70BF7
:1001A000881F991F5A95A9F780959095BC01CD019C
:0601B0000895F894FFCF52
:1001B600FF0000FF8000FFFF0000FF0000FFFF00C0
:0E01C60080FF0000FF8000FFFF00FFFF0080B1
:00000001FF
